:020000040000fa
:080000000002040000000000f2
:020000040000fa
:04000800a80200004a
:020000040000fa
:04000c00a802000046
:020000040000fa
:04001000a802000042
:020000040000fa
:04001400a80200003e
:020000040000fa
:04001800a80200003a
:020000040000fa
:04001c00a802000036
:020000040000fa
:04002000a802000032
:020000040000fa
:04002400a80200002e
:020000040000fa
:04002800a80200002a
:020000040000fa
:04002c00a802000026
:020000040000fa
:04003000a802000022
:020000040000fa
:04003400ae06000014
:020000040000fa
:04003800a80200001a
:020000040000fa
:04003c00a802000016
:020000040000fa
:04004000a802000012
:020000040000fa
:04004400a80200000e
:020000040000fa
:04004800a80200000a
:020000040000fa
:04004c00a802000006
:020000040000fa
:04005000a802000002
:020000040000fa
:04005400d6030000cf
:020000040000fa
:04005800a8020000fa
:020000040000fa
:04005c00a8020000f6
:020000040000fa
:04006000a8020000f2
:020000040000fa
:04006400a8020000ee
:020000040000fa
:04006800a8020000ea
:020000040000fa
:04006c00a8020000e6
:020000040000fa
:04007000a8020000e2
:020000040000fa
:04007400a8020000de
:020000040000fa
:04007800a8020000da
:020000040000fa
:04007c00a8020000d6
:020000040000fa
:04008000a8020000d2
:020000040000fa
:04008400a8020000ce
:020000040000fa
:04008800a8020000ca
:020000040000fa
:04008c00a8020000c6
:020000040000fa
:04009000a8020000c2
:020000040000fa
:04009400a8020000be
:020000040000fa
:04009800a8020000ba
:020000040000fa
:04009c00a8020000b6
:020000040000fa
:0400a0000604000052
:020000040000fa
:0400a400a8020000ae
:020000040000fa
:0400a800a8020000aa
:020000040000fa
:0400ac00a8020000a6
:020000040000fa
:0400b000a8020000a2
:020000040000fa
:0400b400a80200009e
:020000040000fa
:0400b800a80200009a
:020000040000fa
:0400bc00a802000096
:020000040000fa
:0400c000a802000092
:020000040000fa
:0400c400a80200008e
:020000040000fa
:0400c800a80200008a
:020000040000fa
:0400cc00a802000086
:020000040000fa
:0400d000a802000082
:020000040000fa
:0400d400a80200007e
:020000040000fa
:0400d800a80200007a
:020000040000fa
:0400dc00a802000076
:020000040000fa
:0400e000a802000072
:020000040000fa
:0400e400a80200006e
:020000040000fa
:0400e800a80200006a
:020000040000fa
:0400ec00a802000066
:020000040000fa
:0400f000a802000062
:020000040000fa
:0400f400a80200005e
:020000040000fa
:0400f800a80200005a
:020000040000fa
:0400fc00a802000056
:020000040000fa
:04010000a802000051
:020000040000fa
:04010400a80200004d
:020000040000fa
:04010800a802000049
:020000040000fa
:04010c00a802000045
:020000040000fa
:04011000a802000041
:020000040000fa
:04011400a80200003d
:020000040000fa
:04011800a802000039
:020000040000fa
:04011c00a802000035
:020000040000fa
:04012000a802000031
:020000040000fa
:04012400a80200002d
:020000040000fa
:04012800a802000029
:020000040000fa
:04012c00a802000025
:020000040000fa
:04013000a802000021
:020000040000fa
:04013400a80200001d
:020000040000fa
:04013800a802000019
:020000040000fa
:04013c00a802000015
:020000040000fa
:04014000a802000011
:020000040000fa
:04014400a80200000d
:020000040000fa
:04014800a802000009
:020000040000fa
:04014c00a802000005
:020000040000fa
:04015000a802000001
:020000040000fa
:04015400a8020000fd
:020000040000fa
:04015800a8020000f9
:020000040000fa
:04015c00a8020000f5
:020000040000fa
:04016000a8020000f1
:020000040000fa
:04016400a8020000ed
:020000040000fa
:04016800a8020000e9
:020000040000fa
:04016c00a8020000e5
:020000040000fa
:040170004204000045
:020000040000fa
:04017400a8020000dd
:020000040000fa
:04017800a8020000d9
:020000040000fa
:04017c00a8020000d5
:020000040000fa
:04018000a8020000d1
:020000040000fa
:04018400a8020000cd
:020000040000fa
:0401880072040000fd
:020000040000fa
:04018c00a8020000c5
:020000040000fa
:04019000a8020000c1
:020000040000fa
:04019400a8020000bd
:020000040000fa
:04019800a8020000b9
:020000040000fa
:04019c00a8020000b5
:020000040000fa
:04020800a802000048
:020000040000fa
:04020c00a802000044
:020000040000fa
:04021000a802000040
:020000040000fa
:04021400a80200003c
:020000040000fa
:04021800a802000038
:020000040000fa
:04021c00a802000034
:020000040000fa
:04022000a802000030
:020000040000fa
:04022400a80200002c
:020000040000fa
:04022800a802000028
:020000040000fa
:04022c00a802000024
:020000040000fa
:04023000a802000020
:020000040000fa
:04023400a80200001c
:020000040000fa
:04023800a802000018
:020000040000fa
:04023c00a802000014
:020000040000fa
:04024000a802000010
:020000040000fa
:04024400a80200000c
:020000040000fa
:04024800a802000008
:020000040000fa
:04024c00a802000004
:020000040000fa
:04025000a802000000
:020000040000fa
:04025400a8020000fc
:020000040000fa
:04025800a8020000f8
:020000040000fa
:04025c00a8020000f4
:020000040000fa
:04026000a8020000f0
:020000040000fa
:04026400a8020000ec
:020000040000fa
:04026800a8020000e8
:020000040000fa
:04026c00a8020000e4
:020000040000fa
:04027000a8020000e0
:020000040000fa
:04027400a8020000dc
:020000040000fa
:04027800a8020000d8
:020000040000fa
:04027c00a8020000d4
:020000040000fa
:04028000a8020000d0
:020000040000fa
:04028400a8020000cc
:020000040000fa
:04028800a8020000c8
:020000040000fa
:04028c00a8020000c4
:020000040000fa
:04029000a8020000c0
:020000040000fa
:04029400a8020000bc
:020000040000fa
:04029800a8020000b8
:020000040000fa
:04029c00a8020000b4
:020000040000fa
:0402a000a8020000b0
:020000040000fa
:0402a400a8020000ac
:020000040000fa
:0402a800a8020000a8
:020000040000fa
:0402ac00a8020000a4
:020000040000fa
:0402b000a8020000a0
:020000040000fa
:0402b400a80200009c
:020000040000fa
:0402b800a802000098
:020000040000fa
:0402bc00a802000094
:020000040000fa
:0402c000a802000090
:020000040000fa
:0402c400a80200008c
:020000040000fa
:0402c800a802000088
:020000040000fa
:0402cc00a802000084
:020000040000fa
:0402d000a802000080
:020000040000fa
:0402d400a80200007c
:020000040000fa
:0402d800a802000078
:020000040000fa
:0402dc00a802000074
:020000040000fa
:0402e000a802000070
:020000040000fa
:0402e400a80200006c
:020000040000fa
:0402e800a802000068
:020000040000fa
:0402ec00a802000064
:020000040000fa
:0402f000a802000060
:020000040000fa
:0402f400a80200005c
:020000040000fa
:0402f800a802000058
:020000040000fa
:0402fc00a802000054
:020000040000fa
:04030000a80200004f
:020000040000fa
:04030400a80200004b
:020000040000fa
:04030800a802000047
:020000040000fa
:04030c00a802000043
:020000040000fa
:04031000a80200003f
:020000040000fa
:04031400a80200003b
:020000040000fa
:04031800a802000037
:020000040000fa
:04031c00a802000033
:020000040000fa
:04032000a80200002f
:020000040000fa
:04032400a80200002b
:020000040000fa
:04032800a802000027
:020000040000fa
:04032c00a802000023
:020000040000fa
:04033000a80200001f
:020000040000fa
:04033400a80200001b
:020000040000fa
:04033800a802000017
:020000040000fa
:04033c00a802000013
:020000040000fa
:04034000a80200000f
:020000040000fa
:04034400a80200000b
:020000040000fa
:04034800a802000007
:020000040000fa
:04034c00a802000003
:020000040000fa
:04035000a8020000ff
:020000040000fa
:04035400a8020000fb
:020000040000fa
:04035800a8020000f7
:020000040000fa
:04035c00a8020000f3
:020000040000fa
:04036000a8020000ef
:020000040000fa
:04036400a8020000eb
:020000040000fa
:04036800a8020000e7
:020000040000fa
:04036c00a8020000e3
:020000040000fa
:04037000a8020000df
:020000040000fa
:04037400a8020000db
:020000040000fa
:04037800a8020000d7
:020000040000fa
:04037c00a8020000d3
:020000040000fa
:04038000a8020000cf
:020000040000fa
:04038400a8020000cb
:020000040000fa
:04038800a8020000c7
:020000040000fa
:04038c00a8020000c3
:020000040000fa
:04039000a8020000bf
:020000040000fa
:04039400a8020000bb
:020000040000fa
:04039800a8020000b7
:020000040000fa
:04039c00a8020000b3
:020000040000fa
:100400000f8120000e7f24000e01880000000000f4
:10041000000020000000e000020032000001200087
:10042000200288000c00070040732000010020001b
:1004300011000700000020000000e0000200320070
:100440000000020000000000ec06020000000000b6
:100450000040da000000fe004440a9000000200037
:100460000000e0000300320000002000a00188002e
:100470004440a80000000600910188008000780038
:100480000000eb0015003700e280400032a0b4000d
:100490009101ba00e280400032a0b4009102ba009b
:1004a000e280400032a0b4000002eb00472bde00e7
:1004b000f507b200602ce10004003a000059eb009f
:1004c0008301e900fdff3e00040037006128e100e0
:1004d000010032000082eb000b00070011c3ba00dc
:1004e0001101ba000604e00003003a000200e00037
:1004f000e5ff3a0000000600f607b200960188000a
:1005000082007800f5ff37003159ba008301e90015
:100510000c0032002159ba008301e90008003200c2
:100520000400e00003003a00e280400032a0b40082
:10053000f5ff370011d9ba008301e900faff3a004c
:100540008100e800e180400032a0b4000000060015
:100550000040da000000fe0000118000660060002c
:10056000e60f500002003a00301180000000060043
:1005700030118000f00fb2000000060080118000f2
:1005800066006000e60f500002003a00b0118000e3
:1005900000000600b0118000f00fb200000006005d
:1005a0008012800066006000e60f500002003a00f2
:1005b000b012800000000600b0128000f00fb20000
:1005c000000006008015800066006000e60f500005
:1005d00002003a00b015800000000600b01580004f
:1005e000f00fb2000000060001118000e6806000fc
:1005f000e68f500001003200f00fb2002011880099
:100600000000060081118000e6806000e68f500047
:1006100001003200f00fb200a011880000000600b7
:020000040000fa
:100620000200fa00004f7800000000001111800065
:1006300000202000008060000000e000fbff3a0086
:100640001e00fb00201188000080fa000000060058
:100650000200fa0000000000210480000080200059
:10066000008060000000e000fbff320030118000dd
:10067000004f78008560a9001e4078000080fa00d5
:10068000000006000200fa00004f780000000000a1
:100690009111800000202000008060000000e00038
:1006a000fbff3a001e00fb00a01188000080fa004a
:1006b000000006000200fa00000000003104800083
:1006c00000002400008060000000e000fbff32001a
:1006d000b0118000004f780087c0a9001e4078004c
:1006e0000080fa00000006000200fa00004f7800c7
:1006f00000000000911280000020200000806000b7
:100700000000e000fbff3a001e00fb00a012880082
:100710000080fa00000006000200fa00000000005d
:1007200070048000640060000000e000fcff320004
:10073000b0128000004f78008e40a9001e40780063
:100740000080fa00000006000200fa00004f780066
:100750000000000091158000002020000080600053
:100760000000e000fbff3a001e00fb00a01588001f
:100770000080fa00000006000200fa0000000000fd
:100780007104800000102000008060000000e00084
:10079000fbff3200b0158000004f78008f00a900e9
:1007a0001e4078000080fa00000006003600f800c5
:1007b000809fbe00829fbe00849fbe00869fbe00b9
:1007c0003400f80000002000a00188000200fa00b8
:1007d0000000eb00000f78005fff0700000f7800bb
:1007e0001e00780087ff07008560a9000080fa00de
:1007f0003400f9004f03be004f02be004f01be009f
:100800004f00be003600f900004006003600f80038
:10081000809fbe00829fbe00849fbe00869fbe0058
:100820003400f80000002000a00188000000fa0059
:1008300052ff07000040780004e8b7000cc8bf0072
:10084000e14f500003003a0004c8bf000000fb0065
:1008500065ff0700304080000010a0003040880095
:1008600087c0a9000080fa003400f9004f03be00e1
:100870004f02be004f01be004f00be003600f9001f
:10088000004006003600f800809fbe00829fbe0038
:10089000849fbe00869fbe003400f8000000200048
:1008a000a00188000200fa000000eb00000f7800b1
:1008b0003bff0700000f78001e0078004aff07008a
:1008c0008e40a9000080fa003400f9004f03be00fa
:1008d0004f02be004f01be004f00be003600f900bf
:1008e000004006003600f800809fbe00829fbe00d8
:1008f000849fbe00869fbe003400f80000002000e8
:10090000a00188000200fa000000eb00000f780050
:100910002cff0700000f78001e00780032ff070050
:100920008f00a9000080fa003400f9004f03be00d8
:100930004f02be004f01be004f00be003600f9005e
:10094000004006000000fa002135800000fc2f0066
:1009500000806000f000b30020358800f136800090
:1009600000fc2f00008060003000b300f0368800eb
:100970003135800000fc2f00808060006002200084
:1009800001007000303588001136800000fc2f0017
:10099000008060005000b3001036880011358000e0
:1009a000f00f2c00808060000030200001007000fb
:1009b000103588002136800000fc2f000080600088
:1009c000c001b30020368800b135800000fc2f0044
:1009d000008060004001b300b0358800c13680005f
:1009e000f00f2c008080600000e02100010070000a
:1009f000c0368800f0002000401188002062a80066
:100a000021e2a80023e2a80023a2a9002342a80013
:100a1000001a2000c01188003062a80031e2a8004e
:100a200033e2a80033a2a9003342a800f00020005e
:100a3000c01288005062a80051e2a80053e2a8004a
:100a400053a2a9005342a8008560a90087c0a9004d
:100a50008e40a9008f00a9000080fa000000060067
:100a60000200fa000000eb00000f7800f8fe07001b
:100a70000000fb00000f78001e00780000407800a6
:100a8000e7fe07000080fa00000006000000fa0000
:100a9000ddc2a900ec82a80010002000bb00070006
:100aa000ddc2a8000080fa00000006000200fa0083
:100ab0003e000700004f78009e80fb00d00320001e
:100ac0000080600051022000810f5000240032009d
:100ad00051022000810f500008003c00fd0f500023
:100ae0001500320041022000810f50002100320029
:100af000fc0f50000b00320028003700c10220001c
:100b0000810f500011003200c1022000810f5000ff
:100b1000220035004003b100e10f50001f003e00ed
:100b2000190037008010200040408800f07f20002e
:100b3000504088001b003700001020004040880013
:100b4000f07f200050408800160037000021200070
:100b500040408800f0ff200050408800110037001e
:100b60000010200040408800f0ff20005040880026
:100b70000c0037008010200040408800f0ff20006b
:100b800050408800070037000021200040408800c6
:100b9000f0ff2100504088000200370010002000c4
:100ba000404088000080fa00000006000200fa00c1
:100bb0000a00070070cdb30044000700004f780022
:100bc0000040eb0041000700004f780007000700dd
:100bd0001e4078000080fa00000006000000fa00c5
:100be000ec82a9000080fa00000006000000fa0074
:100bf000ec82a8000080fa00000006000000fa0065
:100c00004135800000fc2f0000806000d001b3005f
:100c1000403588007136800000fc2f0000806000a5
:100c20007000b3007036880021368000f00f2c0071
:100c30008080600000802000010070002036880065
:100c4000e882a900d9c2a900ec82a800ddc2a800f0
:100c50008540a9009540a900400580000080a000c3
:100c60000090a10000a0a0004005880010128000a4
:100c70000000a0000010a0001012880010128000d8
:100c80000020a1000030a1000040a0001012880048
:100c90004302a90042c2a8004322a8004382a9003f
:100ca0004362a900001280000020a0000030a100d3
:100cb0000040a1000012880042a2a80040c2a90082
:100cc00041e2a8000080fa00000006000400fa00db
:100cd000204798000040eb00004f78004012800051
:100ce000004f78002e4090000080fb0040128800ea
:100cf0000000000000128000610060000000e000c1
:100d0000fcff320040128000004078000080fa00b2
:100d1000000006000000fa00007d20001008880096
:100d20000421a900200880000040a0000050a1007c
:100d3000200888002005800000c0a00000d0a1008d
:100d400000e0a000200588008460a9009460a8004d
:100d500005e1a8000080fa0000000600801f78006e
:100d60003400f80000002000a00188000000fa0014
:100d700010c0b3000ee8b7008460a9000080fa003c
:100d80003400f9004f007800004006000200fa002d
:100d9000000f780005003700000000000ec8bf00fb
:100da0000004e000fdff32000e68ef001e00780036
:100db00000f0a7000000ea000000ea004f00de009b
:100dc000004078001e0fe9000004e000f2ff3a0046
:100dd0000080fa00000006000200fa000040eb006c
:100de000004f780040a7a9000080eb006019880040
:100df0002e000700d3fe070050c5b3003afe0700df
:100e00007eff0700c3ff070028ff07004006200001
:100e1000deff070065ff0700004f78001e407800e6
:100e20000004e0000d003200501780000000d100e7
:100e30006140600000c0ea00614060000080fb008b
:100e4000610060000000400052178000d1ff2f00b9
:100e50008100610001007000501788001e4078007a
:080e600021fe0700e9ff370045
:020000040000fa
:100e68000008000004000000000000000408000062
:100e780004000000000000000c0800000200000050
:100e880002000000010000000e080000020000003f
:100e98000000000008080000040000000000000036
:040ea800640780005b
:020000040000fa
:100eac000000fa00f022a900e822a900f222a90011
:0c0ebc00ea22a8000080fa0000000600f6
:020000040000fa
:040ec8000000000026
:020000040000fa
:020000040005f5
:0457f400ffff0000b3
:020000040000fa
:020000040005f5
:0457f8006d0300003d
:020000040000fa
:020000040005f5
:0457fc007f3f0000eb
:00000001FF
